:020000040000FA
:040000000DEF04F00C
:08000800056ED8CF06F0E0CF31
:1000100007F00001E9CF0DF0EACF08F0E1CF09F0D9
:10002000E2CF0AF0D9CF0BF0DACF0CF0F3CF14F017
:10003000F4CF15F0FACF16F000C00FF001C010F0A9
:1000400002C011F003C012F004C013F0A0A22CEF04
:1000500000F0A1B24FEF00F00FC000F010C001F0AF
:1000600011C002F012C003F013C004F00E8E0DC0D8
:10007000E9FF08C0EAFF09C0E1FF0AC0E2FF0BC0C8
:10008000D9FF0CC0DAFF14C0F3FF15C0F4FF16C08F
:10009000FAFF055007C0E0FF06C0D8FF1000306A25
:1000A000305001080EE3D8903034036A1B0FE96E1C
:1000B000000E0320EA6E010EEE2601E3EF2A302A3D
:1000C000EFD7A1922CEF00F0216A215001080DE337
:1000D000D8902134036A1B0FE96E000E0320EA6EEC
:1000E000EC6AED52EF6A212AF0D745EF04F0EA6A94
:1000F000250EE96EEF500DE0060E016E006A002E2F
:10010000FED7012EFBD77B0E006E002EFED7EF2E02
:10011000F3D7000C010E226E2250215C0CE3949C5C
:100120008B8C640E256EE3DF949C8B9C640E256E95
:10013000DEDF222AF1D74BEF04F0080E016E050E28
:10014000006E002EFED78B969496060E006E002E43
:10015000FED72E368B98D8B09488D8A094989486E1
:1001600082A6FED7012EEBD7050E006E002EFED71D
:100170008B96949600009488060E006E002EFED793
:10018000060E006E002EFED7948682A6FED7016A68
:10019000060E006E002EFED782B801808B969496D4
:1001A0008B989498000C9488050E006E002EFED754
:1001B0009486060E006E002EFED78B989498050E3E
:1001C000006E002EFED78B969496400E2E6EB5DFF5
:1001D00021C02EF0B2DF22C02EF0AFDF94980000D5
:1001E000948682A6FED7050E006E002EFED700D0A4
:1001F00000009488050E006E002EFED7530E006E90
:10020000002EFED7000C080E2B6E00C02CF0948838
:10021000060E006E002EFED7948682A6FED782B808
:10022000D88082A8D8900136050E006E002EFED729
:1002300094968B962B2EEBD79488060E006E002E8C
:10024000FED78B982C50D8A494980000948682A650
:10025000FED7050E006E002EFED78B969496060EE6
:10026000006E002EFED78B989498000C226A236AA9
:100270009488050E006E002EFED79486060E006E42
:10028000002EFED78B989498050E006E002EFED798
:100290008B96949621C02EF050DF2E6A4EDF510EC1
:1002A0002E6E4BDF94980000948682A6FED7050E32
:1002B000006E002EFED700D000009488050E006E60
:1002C000002EFED7460E256E12DF9488050E006EB6
:1002D000002EFED79486060E006E002EFED78B9859
:1002E0009498050E006E002EFED78B96949621C032
:1002F0002EF023DF020E2E6E20DF9488050E006E96
:10030000002EFED79486060E006E002EFED782A623
:10031000FED78B989498050E006E002EFED78B9614
:10032000949621500109256E2E6E07DF010E006E96
:100330006ADF01C022F0006A66DF01C023F09498F2
:100340000000948682A6FED7050E006E002EFED712
:1003500000D000009488050E006E002EFED72252B9
:1003600003E0FF0E246E02D023C024F024C001F06D
:1003700057EF04F09488050E006E002EFED7948689
:10038000060E006E002EFED782A6FED78B9894989C
:10039000050E006E002EFED78B969496400E2E6EA4
:1003A000CCDE25C02EF0C9DE94980000948682A68B
:1003B000FED7050E006E002EFED700D000009488F8
:1003C000050E006E002EFED7530E006E002EFED7D7
:1003D0009488050E006E002EFED79486060E006EE1
:1003E000002EFED78B989498050E006E002EFED737
:1003F0008B969496410E2E6EA0DE010E006E03DFEA
:1004000001C026F0006AFFDE01C027F094980000CA
:10041000948682A6FED7050E006E002EFED700D071
:1004200000009488050E006E002EFED7530E006E5D
:10043000002EFED7296A27C028F028C029F0286A94
:100440002650281228C001F029C002F0000C2A50C2
:100450002C6E2E6A2BC02DF09488050E006E002E97
:10046000FED79486060E006E002EFED78B989498C9
:10047000050E006E002EFED78B969496400E2E6EC3
:100480005CDE29C02EF059DE2CC02EF056DE2DC0C9
:100490002EF053DE94980000948682A6FED7050EB7
:1004A000006E002EFED700D000009488050E006E6E
:1004B000002EFED7530E006E002EFED7000C256ACC
:1004C00059DF02C026F00150256E2310276E02501E
:1004D0002410286E296A2B6E27C02AF0B8DF000C82
:1004E000256A48DF02C026F001C025F024C003F0D1
:1004F000031E2350FF0A0114276E03500214286EB6
:10050000296A2B6E27C02AF0A2DF000C2150010AB5
:1005100014E0030A30E0010A4CE0070AD8B467D0BF
:10052000010AD8B482D0030AD8B49DD0010AD8B445
:10053000B8D00F0AD8B4D3D0F0D022507F0808E347
:10054000246A010E236EBBDF246A020E236EC8DF0D
:100550002250800808E2246A010E236EC1DF246A5B
:10056000020E236EACDF2250800804E1246A030EE1
:10057000236EB6DFD3D022507F0808E3246A040E2E
:10058000236E9DDF246A080E236EAADF22508008A6
:1005900008E2246A040E236EA3DF246A080E236E89
:1005A0008EDF2250800804E1246A0C0E236E98DF4F
:1005B000B5D022507F0808E3246A100E236E7FDF37
:1005C000246A200E236E8CDF2250800808E2246A01
:1005D000100E236E85DF246A200E236E70DF2250FA
:1005E000800804E1246A300E236E7ADF97D022500F
:1005F0007F0808E3246A400E236E61DF246A800EC0
:10060000236E6EDF2250800808E2246A400E236EBB
:1006100067DF246A800E236E52DF2250800804E1D7
:10062000246AC00E236E5CDF79D022507F0808E375
:10063000010E246E236A43DF020E246E236A50DF0C
:100640002250800808E2010E246E236A49DF020E60
:10065000246E236A34DF2250800804E1030E246EE6
:10066000236A3EDF5BD022507F0808E3040E246E2D
:10067000236A25DF080E246E236A32DF22508008A9
:1006800008E2040E246E236A2BDF080E246E236A10
:1006900016DF2250800804E10C0E246E236A20DF4E
:1006A0003DD022507F0808E3100E246E236A07DF36
:1006B000200E246E236A14DF2250800808E2100EF8
:1006C000246E236A0DDF200E246E236AF8DE22508A
:1006D000800804E1300E246E236A02DF1FD022500E
:1006E0007F0808E3400E246E236AE9DE800E246E44
:1006F000236AF6DE2250800808E2400E246E236A48
:10070000EFDE800E246E236ADADE2250800804E1D8
:10071000C00E246E236AE4DE01D000D0000C929655
:100720008986010E216E226AF1DE206A010E1F6E9B
:10073000205242E11F5008083FE3050E216EFF0ED4
:10074000226EE4DE060E216E226AE0DE040E216EC9
:10075000FA0E256ECCDC212EFBD7050E216E800E05
:10076000226ED4DE060E216E800E226ECFDE040EC7
:10077000216EFA0E256EBBDC212EFBD7050E216EF5
:10078000226AC4DE060E216EFF0E226EBFDE040E4C
:10079000216EFA0E256EABDC212EFBD7050E216EE5
:1007A000800E226EB3DE060E216E800E226EAEDE4D
:1007B0001F2AD8B4202ABCD792968996010E216EA2
:1007C000800E226EA3DE030E216EFF0E226E9EDED1
:1007D000040E216EFA0E256E8ADC212EFBD7030E45
:1007E000216E800E226E92DE040E216EFA0E256EB0
:1007F0007EDC212EFBD7030E216E226A87DE040EDB
:10080000216EFA0E256E73DC212EFBD7030E216EAE
:10081000800E226E7BDE62EF04F0F86AD09E0D8EB1
:10082000EA6AE96AC150C00B0F09C16E070EB46EC7
:10083000186A196A1A901A92F50E926EFF0E936E4C
:10084000A10E946E92968996949C8B9C929289822A
:10085000B150480B8509B16EB36AB26A000E040943
:10086000CA6EC70ECB6E94948B940C0EBD6E949290
:100870008B92BA6EC80EBE6EBD50CF0BBD6E7D0E94
:10088000BB6EBA50CF0BBA6E1FD4A082C00EF2124C
:100890000A0E216E3FD4060E216E226A84DC070EFA
:1008A000216E226A80DC1A82E00E216EDFD401C044
:1008B00019F01E50010808E2FF0A03E11D50FB0871
:1008C00003E22DD71E6A1D6A1AA243D019503108BF
:1008D00002E3195208E11C50000831E2FF0A03E16B
:1008E0001B507D082CE2050E216E800E226E0EDE5E
:1008F000060E216E800E226E09DE640E256E77ECE8
:1009000000F0050E216EFF0E226E00DE060E216E37
:10091000226AFCDD040E216EFA0E256E77EC00F0E3
:10092000212EFAD7050E216E800E226EEFDD060E07
:10093000216E800E226EEADD1C6A1B6A0AD0050E4B
:10094000216EFF0E226EE2DD060E216EFF0E226E7C
:06095000DDDDAAD7030063
:020000040030CA
:0E00000000C21E0E008781000FC00FE00F40EF
:00000001FF
;PIC18F2620
